:100000000C9463000C948B000C948B000C948B026A
:100010000C948B020C948B020C948B000C948B0030
:100020000C948B000C948B000C948B000C948B0024
:100030000C948B000C948B000C948B000C948B0014
:100040000C9441020C948B000C942B030C9405032C
:100050000C948B000C948B000C948B000C948B00F4
:100060000C948B000C948B0000000008000201002F
:100070000003040700000000000000000000000072
:1000800023002600290000000000240027002A0089
:1000900000000000250028002B00040404040404D0
:1000A0000404020202020202030303030303010227
:1000B00004081020408001020408102001020408F6
:1000C0001020AA03D30511241FBECFEFD8E0DEBF56
:1000D000CDBF22E0A4E2B1E001C01D92AD32B20773
:1000E000E1F711E0A0E0B1E0E4E6FCE002C0059039
:1000F0000D92A432B107D9F710E0C2E6D0E004C0F7
:100100002197FE010E941F06C136D107C9F70E9440
:100110008C040C94EF050C94000020916601309142
:1001200067012817390771F4909165018091640186
:10013000981741F0E0916501F0E0EC5DFE4F8081A1
:1001400090E008958FEF9FEF089508951F93CF9348
:10015000DF93DC015C968D919C915D97009739F45B
:1001600021E030E013963C932E9312973BC05196BA
:10017000ED91FC91529750962C915097322F3095DB
:100180001FB75E964C915E97742F727041FD60951B
:10019000F8944081772311F0422B01C04323408320
:1001A000EC012197F1F748E0508160FF02C0522B2B
:1001B00001C053235083EC012197F1F7669541501C
:1001C00099F78081772319F08323808302C0282B3D
:1001D00020831FBF5C968D919C915D970197F1F7ED
:1001E00081E090E0DF91CF911F9108952091660109
:1001F000309167012817390771F4809164012091CB
:10020000650190E0805C9F4F821B910960E470E083
:100210000E94F705089580E090E00895209166011E
:100220003091670128173907B9F4909165018091E1
:100230006401981789F0E0916501F0E0EC5DFE4FF4
:1002400080812091650130E02F5F3F4F2F7333276E
:100250002093650190E008958FEF9FEF0895FC01D2
:10026000538D448D252F30E0842F90E0821B930B1B
:10027000541710F0CF96089501970895FC01918DC1
:10028000828D981761F0828DDF01A80FB11D5D96F8
:100290008C91928D9F5F9F73928F90E008958FEF66
:1002A0009FEF0895FC01918D828D981731F0828D1A
:1002B000E80FF11D858D90E008958FEF9FEF089571
:1002C000FC01918D228D892F90E0805C9F4F821BD5
:1002D00091098F7399270895FC01848DDF01A80F80
:1002E000B11DA35ABF4F2C91848D90E001968F735E
:1002F0009927848FA689B7892C93A089B1898C917D
:10030000837080648C93938D848D981306C00288CB
:10031000F389E02D80818F7D80830895EF92FF9295
:100320000F931F93CF93DF93EC0181E0888F9B8D18
:100330008C8D981305C0E889F989808185FD26C0D8
:10034000F62E0B8D10E00F5F1F4F0F731127E02E5D
:100350008C8DE8120CC00FB607FCFACFE889F9893A
:10036000808185FFF5CFCE010E946C01F1CF8B8D8E
:10037000FE01E80FF11DE35AFF4FF0829FB7F8949A
:100380000B8FEA89FB89808180620AC09FB7F8944D
:10039000EE89FF896083E889F989808183708064B0
:1003A00080839FBF81E090E0DF91CF911F910F91FB
:1003B000FF90EF900895CF93DF93EC01888D882311
:1003C000C9F0EA89FB89808185FD05C0A889B989C2
:1003D0008C9186FD0FC00FB607FCF5CF808185FF9D
:1003E000F2CFA889B9898C9185FFEDCFCE010E940B
:1003F0006C01E7CFDF91CF91089581E791E00E94F2
:10040000600121E0892B09F420E0822F089580E02B
:1004100090E0892B29F00E94FD0181110C940000CD
:100420000895CF92DF92EF92FF920F931F93CF9395
:10043000DF936C017A018B01C0E0D0E0CE15DF05BF
:1004400081F0D8016D918D01D601ED91FC91019063
:10045000F081E02DC6010995892B11F02196EECF90
:100460007E01C701DF91CF911F910F91FF90EF9017
:10047000DF90CF900895089580E090E008950E9465
:10048000F2051F920F920FB60F9211242F933F93F4
:100490008F939F93AF93BF9380916D0190916E0165
:1004A000A0916F01B091700130916C0123E0230F96
:1004B0002D3720F40196A11DB11D05C026E8230F9C
:1004C0000296A11DB11D20936C0180936D01909344
:1004D0006E01A0936F01B0937001809168019091BB
:1004E0006901A0916A01B0916B010196A11DB11D36
:1004F0008093680190936901A0936A01B0936B01A6
:10050000BF91AF919F918F913F912F910F900FBE0F
:100510000F901F9018951F920F920FB60F921124F3
:100520002F933F934F935F936F937F938F939F93FB
:10053000AF93BF93EF93FF93E0916601F091670152
:10054000309709F451C0968DA685B785858591FFB2
:1005500004C09C91892329F447C09C91892309F008
:1005600043C0A389B4899C918589809589238C9304
:10057000868997890197F1F7608D718DA685B7857A
:10058000558538E020E0CB010197F1F7822F90E00C
:1005900095958795282F4C91452309F02068315077
:1005A00091F7868D81FD20958091640190E0019600
:1005B0008F73992730916501381749F0A091640134
:1005C000B0E0AC5DBE4F2C938093640103C0868D78
:1005D0008160868F828D938D0197F1F7A389B4890D
:1005E0009C918589892B8C93FF91EF91BF91AF915D
:1005F0009F918F917F916F915F914F913F912F913B
:100600000F900FBE0F901F9018951F920F920FB66C
:100610000F9211242F933F934F935F936F937F9388
:100620008F939F93AF93BF93EF93FF9381E791E0F5
:100630000E946C01FF91EF91BF91AF919F918F91BB
:100640007F916F915F914F913F912F910F900FBECE
:100650000F901F9018951F920F920FB60F921124B2
:100660002F938F939F93EF93FF93E0918101F091EC
:1006700082018081E0918701F091880182FD12C0A2
:10068000908180918A018F5F8F7320918B018217F7
:1006900051F0E0918A01F0E0EF58FE4F958F809382
:1006A0008A0101C08081FF91EF919F918F912F91DD
:1006B0000F900FBE0F901F90189590E0FC01E85925
:1006C000FF4F2491FC01E255FF4F3491FC01E656A7
:1006D000FF4FE491EE2309F43CC0222339F123308B
:1006E00091F038F42130A9F0223001F584B58F7DE6
:1006F00012C0273091F02830A1F02430B9F4809155
:1007000080008F7D03C0809180008F778093800070
:100710000DC084B58F7784BD09C08091B0008F77FC
:1007200003C08091B0008F7D8093B000F0E0EE0FA9
:10073000FF1FE057FF4FA591B4919FB7F894611147
:1007400004C08C913095382302C0EC913E2B3C9331
:100750009FBF0895CF93DF9310927401109273019D
:1007600088EE93E0A0E0B0E080937501909376016D
:10077000A0937701B093780124E031E030937201C7
:100780002093710125EC30E030937E0120937D01B0
:1007900024EC30E03093800120937F0120EC30E0A6
:1007A000309382012093810121EC30E03093840169
:1007B0002093830122EC30E0309386012093850161
:1007C00026EC30E0309388012093870110928A0153
:1007D00010928B0110928C0110928D0110921102D7
:1007E000109210028093120290931302A0931402AD
:1007F000B093150286E191E090930F0280930E0270
:1008000010922502109224021092270210922602C2
:10081000109229021092280210922B0210922A02A2
:1008200060912C026E7F6D7F60932C0266956170E3
:1008300081E0682787E00E945D03E5EBF0E024910A
:10084000E1EAF0E08491882399F090E0880F991F05
:10085000FC01EA57FF4FA591B491FC01E057FF4F0F
:10086000859194918FB7F894EC91E22BEC938FBF24
:10087000E5EBF0E0E491E0931E02E1EAF0E0E491C0
:10088000F0E0EE0FFF1FE057FF4F8591949190939A
:10089000200280931F02E2EBF0E02491EEE9F0E009
:1008A00084918823C1F090E0880F991FFC01EA57DA
:1008B000FF4FC591D491FC01E057FF4FA591B49132
:1008C0009FB7F8948881E22FE0958E2388838C91DE
:1008D000E823EC939FBF80912C0281FD04C061E06E
:1008E00084E00E945D0384E080931A02E2EBF0E072
:1008F000E491E0931B02EEE9F0E0E491F0E0EE0F0A
:10090000FF1FE458FF4F8591949190931D028093AF
:100910001C02DF91CF910895789484B5826084BDE4
:1009200084B5816084BD85B5826085BD85B58160F3
:1009300085BD80916E00816080936E001092810071
:10094000809181008260809381008091810081602C
:1009500080938100809180008160809380008091ED
:10096000B10084608093B1008091B0008160809379
:10097000B00080917A00846080937A0080917A0040
:10098000826080937A0080917A00816080937A00FF
:1009900080917A00806880937A001092C100109252
:1009A0002902109228021092270210922602109219
:1009B00025021092240285E690E090932B0280930A
:1009C0002A0290911A02963108F058C021E230E0D4
:1009D000309325022093240223E630E0309327024F
:1009E0002093260222E430E030932902209328024B
:1009F00040916800983058F031E09E3008F430E0C3
:100A000021E0822F01C0880F3A95EAF701C084E007
:100A1000842B80936800983038F09E3040F09631F7
:100A200048F020E030E008C02DE630E005C02BE6BD
:100A300030E002C02CE630E0309322022093210205
:100A4000983030F481E001C0880F9A95EAF70EC023
:100A5000292F30E09E3018F42850310902C02E5062
:100A6000310981E001C0880F2A95EAF780932302BB
:100A700080912A0290912B020197F1F78091280230
:100A800090912902892B49F1E0916601F09167016B
:100A900082E0EE30F80709F1309739F0A389B48984
:100AA0009C918589809589238C9380912C028E7FDF
:100AB00080932C0210926401109265018EE092E006
:100AC0009093670180936601E0912102F0912202E8
:100AD000908180912302892B8083E0918101F091A4
:100AE000820182E08083E0917D01F0917E0110829D
:100AF000E0917F01F091800183E38083109289016E
:100B0000E0918501F091860186E08083E091830188
:100B1000F0918401808180618083E0918301F09174
:100B20008401808188608083E0918301F091840159
:100B3000808180688083E0918301F09184018081CD
:100B40008F7D808388EE93E0A0E0B0E08093750114
:100B500090937601A0937701B093780181E791E0BB
:100B60000E94DB018EE092E00E94F600892B49F0A2
:100B70008EE092E00E940E01682F81E791E00E94D2
:100B80008E0181E791E00E946001892B49F081E7A5
:100B900091E00E943E01682F8EE092E00E94A60044
:100BA0000E940702DFCF86E191E090930F028093CD
:100BB0000E0280916601909167018E50924071F40F
:100BC000E0912102F0912202908180912302809590
:100BD0008923808310926701109266010895F8942A
:100BE0000C94250681E090E0F8940C94250697FB80
:100BF000072E16F4009407D077FD09D00E940B064B
:100C000007FC05D03EF4909581959F4F089570950F
:100C100061957F4F0895AA1BBB1B51E107C0AA1F16
:100C2000BB1FA617B70710F0A61BB70B881F991F8D
:100C30005A95A9F780959095BC01CD010895EE0FC6
:100C4000FF1F0590F491E02D099410E0C2E6D0E07A
:100C500004C0FE010E941F062196C336D107C9F7C2
:040C6000F894FFCF36
:100C6400000000008E0111022F01DB0160013E0132
:100C7400520100000000A60011023C02A500F6008B
:040C84000E018D00D0
:00000001FF
